{
  "contractName": "Vote",
  "abi": [
    {
      "inputs": [],
      "name": "candidate1",
      "outputs": [
        {
          "internalType": "uint256",
          "name": "",
          "type": "uint256"
        }
      ],
      "stateMutability": "view",
      "type": "function",
      "constant": true
    },
    {
      "inputs": [],
      "name": "candidate2",
      "outputs": [
        {
          "internalType": "uint256",
          "name": "",
          "type": "uint256"
        }
      ],
      "stateMutability": "view",
      "type": "function",
      "constant": true
    },
    {
      "inputs": [
        {
          "internalType": "address",
          "name": "",
          "type": "address"
        }
      ],
      "name": "voted",
      "outputs": [
        {
          "internalType": "bool",
          "name": "",
          "type": "bool"
        }
      ],
      "stateMutability": "view",
      "type": "function",
      "constant": true
    },
    {
      "inputs": [
        {
          "internalType": "uint256",
          "name": "candidate",
          "type": "uint256"
        }
      ],
      "name": "castVote",
      "outputs": [],
      "stateMutability": "nonpayable",
      "type": "function"
    }
  ],
  "bytecode": "0x608060405234801561001057600080fd5b50610400806100206000396000f3fe608060405234801561001057600080fd5b506004361061004c5760003560e01c806301243fce146100515780633eb76b9c1461006f5780635b57014c1461008b578063aec2ccae146100a9575b600080fd5b6100596100d9565b60405161006691906102c1565b60405180910390f35b6100896004803603810190610084919061025f565b6100df565b005b6100936101e6565b6040516100a091906102c1565b60405180910390f35b6100c360048036038101906100be9190610236565b6101ec565b6040516100d091906102a6565b60405180910390f35b60005481565b600260003373ffffffffffffffffffffffffffffffffffffffff1673ffffffffffffffffffffffffffffffffffffffff16815260200190815260200160002060009054906101000a900460ff16158015610144575060018114806101435750600281145b5b61014d57600080fd5b60018114156101725760008081548092919061016890610324565b919050555061018b565b6001600081548092919061018590610324565b91905055505b6001600260003373ffffffffffffffffffffffffffffffffffffffff1673ffffffffffffffffffffffffffffffffffffffff16815260200190815260200160002060006101000a81548160ff02191690831515021790555050565b60015481565b60026020528060005260406000206000915054906101000a900460ff1681565b60008135905061021b8161039c565b92915050565b600081359050610230816103b3565b92915050565b60006020828403121561024857600080fd5b60006102568482850161020c565b91505092915050565b60006020828403121561027157600080fd5b600061027f84828501610221565b91505092915050565b610291816102ee565b82525050565b6102a08161031a565b82525050565b60006020820190506102bb6000830184610288565b92915050565b60006020820190506102d66000830184610297565b92915050565b60006102e7826102fa565b9050919050565b60008115159050919050565b600073ffffffffffffffffffffffffffffffffffffffff82169050919050565b6000819050919050565b600061032f8261031a565b91507fffffffffffffffffffffffffffffffffffffffffffffffffffffffffffffffff8214156103625761036161036d565b5b600182019050919050565b7f4e487b7100000000000000000000000000000000000000000000000000000000600052601160045260246000fd5b6103a5816102dc565b81146103b057600080fd5b50565b6103bc8161031a565b81146103c757600080fd5b5056fea2646970667358221220ea99106cc98235413d44661f9e805291293f649d458ad2a708c3010b0ca686c164736f6c63430008000033",
  "immutableReferences": {},
  "source": "// SPDX-License-Identifier: MIT\npragma solidity >=0.4.22 <0.9.0;\n\nimport \"@openzeppelin/contracts/utils/Strings.sol\";\n\ncontract Vote {\n    uint256 public candidate1;\n    uint256 public candidate2;\n    mapping(address => bool) public voted;\n\n    function castVote(uint256 candidate) public {\n        require(!voted[msg.sender] && (candidate == 1 || candidate == 2));\n        if (candidate == 1) {\n            candidate1++;\n        } else {\n            candidate2++;\n        }\n        voted[msg.sender] = true;\n    }\n}\n",
  "sourcePath": "/home/quentin/Projet/csharp/dapp/solidity/contracts/Vote.sol",
  "compiler": {
    "name": "solc",
    "version": "0.8.0+commit.c7dfd78e.Emscripten.clang"
  },
  "schemaVersion": "3.4.3",
  "updatedAt": "2021-12-26T10:52:47.949Z",
  "networkType": "ethereum",
  "devdoc": {
    "kind": "dev",
    "methods": {},
    "version": 1
  },
  "userdoc": {
    "kind": "user",
    "methods": {},
    "version": 1
  }
}